{
  "contractName": "ChainPayContract",
  "abi": [
    {
      "inputs": [
        {
          "name": "_token",
          "type": "address"
        }
      ],
      "payable": false,
      "stateMutability": "nonpayable",
      "type": "constructor"
    },
    {
      "constant": false,
      "inputs": [
        {
          "name": "senders",
          "type": "address[]"
        },
        {
          "name": "recipients",
          "type": "address[]"
        },
        {
          "name": "amounts",
          "type": "uint256[]"
        }
      ],
      "name": "sendTransactions",
      "outputs": [],
      "payable": false,
      "stateMutability": "nonpayable",
      "type": "function"
    },
    {
      "constant": false,
      "inputs": [
        {
          "name": "token_",
          "type": "address"
        }
      ],
      "name": "setTokenAddress",
      "outputs": [],
      "payable": false,
      "stateMutability": "nonpayable",
      "type": "function"
    },
    {
      "constant": true,
      "inputs": [],
      "name": "getTokenAddress",
      "outputs": [
        {
          "name": "",
          "type": "address"
        }
      ],
      "payable": false,
      "stateMutability": "view",
      "type": "function"
    },
    {
      "constant": false,
      "inputs": [
        {
          "name": "owner_",
          "type": "address"
        }
      ],
      "name": "setOwnerAddress",
      "outputs": [],
      "payable": false,
      "stateMutability": "nonpayable",
      "type": "function"
    },
    {
      "constant": true,
      "inputs": [],
      "name": "getOwnerAddress",
      "outputs": [
        {
          "name": "",
          "type": "address"
        }
      ],
      "payable": false,
      "stateMutability": "view",
      "type": "function"
    }
  ],
  "bytecode": "0x608060405234801561001057600080fd5b506040516020806107e78339810180604052602081101561003057600080fd5b8101908080519060200190929190505050806000806101000a81548173ffffffffffffffffffffffffffffffffffffffff021916908373ffffffffffffffffffffffffffffffffffffffff16021790555033600160006101000a81548173ffffffffffffffffffffffffffffffffffffffff021916908373ffffffffffffffffffffffffffffffffffffffff16021790555050610715806100d26000396000f3fe608060405234801561001057600080fd5b50600436106100575760003560e01c80630c4f65bd1461005c57806310fe9ae8146100a657806326a4e8d2146100f0578063331a6bf514610134578063b16bcebe14610178575b600080fd5b610064610358565b604051808273ffffffffffffffffffffffffffffffffffffffff1673ffffffffffffffffffffffffffffffffffffffff16815260200191505060405180910390f35b6100ae610382565b604051808273ffffffffffffffffffffffffffffffffffffffff1673ffffffffffffffffffffffffffffffffffffffff16815260200191505060405180910390f35b6101326004803603602081101561010657600080fd5b81019080803573ffffffffffffffffffffffffffffffffffffffff1690602001909291905050506103ab565b005b6101766004803603602081101561014a57600080fd5b81019080803573ffffffffffffffffffffffffffffffffffffffff169060200190929190505050610482565b005b6103566004803603606081101561018e57600080fd5b81019080803590602001906401000000008111156101ab57600080fd5b8201836020820111156101bd57600080fd5b803590602001918460208302840111640100000000831117156101df57600080fd5b919080806020026020016040519081016040528093929190818152602001838360200280828437600081840152601f19601f8201169050808301925050505050505091929192908035906020019064010000000081111561023f57600080fd5b82018360208201111561025157600080fd5b8035906020019184602083028401116401000000008311171561027357600080fd5b919080806020026020016040519081016040528093929190818152602001838360200280828437600081840152601f19601f820116905080830192505050505050509192919290803590602001906401000000008111156102d357600080fd5b8201836020820111156102e557600080fd5b8035906020019184602083028401116401000000008311171561030757600080fd5b919080806020026020016040519081016040528093929190818152602001838360200280828437600081840152601f19601f82011690508083019250505050505050919291929050505061055a565b005b6000600160009054906101000a900473ffffffffffffffffffffffffffffffffffffffff16905090565b60008060009054906101000a900473ffffffffffffffffffffffffffffffffffffffff16905090565b600160009054906101000a900473ffffffffffffffffffffffffffffffffffffffff1673ffffffffffffffffffffffffffffffffffffffff163373ffffffffffffffffffffffffffffffffffffffff161461040557600080fd5b600073ffffffffffffffffffffffffffffffffffffffff168173ffffffffffffffffffffffffffffffffffffffff16141561043f57600080fd5b806000806101000a81548173ffffffffffffffffffffffffffffffffffffffff021916908373ffffffffffffffffffffffffffffffffffffffff16021790555050565b600160009054906101000a900473ffffffffffffffffffffffffffffffffffffffff1673ffffffffffffffffffffffffffffffffffffffff163373ffffffffffffffffffffffffffffffffffffffff16146104dc57600080fd5b600073ffffffffffffffffffffffffffffffffffffffff168173ffffffffffffffffffffffffffffffffffffffff16141561051657600080fd5b80600160006101000a81548173ffffffffffffffffffffffffffffffffffffffff021916908373ffffffffffffffffffffffffffffffffffffffff16021790555050565b815183511461056857600080fd5b805182511461057657600080fd5b60008090505b82518110156106e3576000809054906101000a900473ffffffffffffffffffffffffffffffffffffffff1673ffffffffffffffffffffffffffffffffffffffff1663fecd7fe78583815181106105ce57fe5b60200260200101518584815181106105e257fe5b60200260200101518585815181106105f657fe5b60200260200101516040518463ffffffff1660e01b8152600401808473ffffffffffffffffffffffffffffffffffffffff1673ffffffffffffffffffffffffffffffffffffffff1681526020018373ffffffffffffffffffffffffffffffffffffffff1673ffffffffffffffffffffffffffffffffffffffff1681526020018281526020019350505050602060405180830381600087803b15801561069a57600080fd5b505af11580156106ae573d6000803e3d6000fd5b505050506040513d60208110156106c457600080fd5b810190808051906020019092919050505050808060010191505061057c565b5050505056fea165627a7a72305820b1fa0dfc2166d20c51780218f0c24bb976e43d65bc154935e63c7cca84b3f6c80029",
  "source": "pragma solidity ^0.5.8;\n\ncontract SimpleERC20Token {\n    mapping (address => uint256) public balanceOf;\n\n    string public name = \"Simple ERC20 Token\";\n    string public symbol = \"SET\";\n    uint8 public decimals = 18;\n\n    uint256 public totalSupply = 1000000 * (uint256(10) ** decimals);\n    mapping(address => mapping(address => uint256)) public allowance;\n\n    ChainPayContract chainpayContract;\n    address owner;\n\n    event Transfer(address indexed from, address indexed to, uint256 value);\n    event Approval(address indexed owner, address indexed spender, uint256 value);\n    \n    modifier onlyChainpayContract {\n        require(msg.sender == address(chainpayContract));\n        _;\n    }\n    \n    modifier onlyOwner {\n        require(msg.sender == owner);\n        _;\n    }\n    \n    constructor() public {\n        // Initially assign all tokens to the contract's creator.\n        balanceOf[msg.sender] = totalSupply;\n        owner = msg.sender;\n        emit Transfer(address(0), msg.sender, totalSupply);\n    }\n    \n    function setOwnerAddress(address owner_) public onlyOwner {\n        require(address(owner_) != address(0));\n        owner = owner_;\n    }\n    \n    function getOwnerAddress() public view returns(address) {\n        return owner;\n    }\n    \n    function setChainpayAddress(ChainPayContract chainpayContract_) public onlyOwner {\n        require(address(chainpayContract_) != address(0));\n        chainpayContract = chainpayContract_;\n    }\n    \n    function getChainpayAddress() public view returns(address) {\n        return address(chainpayContract);\n    }\n\n    function transfer(address to, uint256 value) public returns (bool success) {\n        require(balanceOf[msg.sender] >= value);\n    \n        balanceOf[msg.sender] -= value;           // deduct from sender's balance\n        balanceOf[to] += value;                  // add to recipient's balance\n    \n        emit Transfer(msg.sender, to, value);\n        return true;\n    }\n    \n    function approve(address spender, uint256 value) public returns (bool success) {\n        allowance[msg.sender][spender] = value;\n        emit Approval(msg.sender, spender, value);\n        return true;\n    }\n    \n    function transferFrom(address from, address to, uint256 value)\n    public\n    returns (bool success)\n    {\n        require(value <= balanceOf[from]);\n        require(value <= allowance[from][msg.sender]);\n    \n        balanceOf[from] -= value;\n        balanceOf[to] += value;\n        allowance[from][msg.sender] -= value;\n        emit Transfer(from, to, value);\n        return true;\n    }\n    \n    function transferFromUsingContract(address from, address to, uint256 value) \n    public\n    onlyChainpayContract\n    returns (bool success) {\n        require(value <= balanceOf[from]);\n\n        balanceOf[from] -= value;\n        balanceOf[to] += value;\n        emit Transfer(from, to, value);\n        return true;\n    }\n    \n\n}\n\ncontract ChainPayContract {\n    \n    SimpleERC20Token token;\n    address owner;\n    \n    modifier onlyOwner {\n        require(msg.sender == owner);\n        _;\n    }\n    constructor(SimpleERC20Token _token) public {\n        token = _token;\n        owner = msg.sender;\n    }\n    \n    function sendTransactions(address[] memory senders, address[] memory recipients, uint256[] memory amounts) public {\n        require(senders.length == recipients.length);\n        require(recipients.length == amounts.length);\n\n        for(uint256 i = 0; i < recipients.length; i++) {\n            token.transferFromUsingContract(senders[i], recipients[i], amounts[i]);\n        }\n    }\n    \n    function setTokenAddress(SimpleERC20Token token_) public onlyOwner {\n        require(address(token_) != address(0));\n        token = token_;\n    }\n    \n    function getTokenAddress() public view returns(SimpleERC20Token) {\n        return token;\n    }\n    \n    function setOwnerAddress(address owner_) public onlyOwner {\n        require(address(owner_) != address(0));\n        owner = owner_;\n    }\n    \n    function getOwnerAddress() public view returns(address) {\n        return owner;\n    }\n\n}\n",
  "sourcePath": "/Users/jawadahmed/Personal/mike/chainpay/contracts/Chainpay.sol",
  "compiler": {
    "name": "solc",
    "version": "0.5.8+commit.23d335f2.Emscripten.clang"
  },
  "schemaVersion": "3.0.10",
  "updatedAt": "2019-06-08T02:58:59.638Z",
  "devdoc": {
    "methods": {}
  },
  "userdoc": {
    "methods": {}
  }
}