{
  "contractName": "ChainPayContract",
  "abi": [
    {
      "inputs": [
        {
          "name": "_token",
          "type": "address"
        }
      ],
      "payable": false,
      "stateMutability": "nonpayable",
      "type": "constructor"
    },
    {
      "constant": false,
      "inputs": [
        {
          "name": "senders",
          "type": "address[]"
        },
        {
          "name": "recipients",
          "type": "address[]"
        },
        {
          "name": "amounts",
          "type": "uint256[]"
        }
      ],
      "name": "sendTransactions",
      "outputs": [],
      "payable": false,
      "stateMutability": "nonpayable",
      "type": "function"
    },
    {
      "constant": false,
      "inputs": [
        {
          "name": "token_",
          "type": "address"
        }
      ],
      "name": "setTokenAddress",
      "outputs": [],
      "payable": false,
      "stateMutability": "nonpayable",
      "type": "function"
    },
    {
      "constant": true,
      "inputs": [],
      "name": "getTokenAddress",
      "outputs": [
        {
          "name": "",
          "type": "address"
        }
      ],
      "payable": false,
      "stateMutability": "view",
      "type": "function"
    },
    {
      "constant": true,
      "inputs": [],
      "name": "getOwnerAddress",
      "outputs": [
        {
          "name": "",
          "type": "address"
        }
      ],
      "payable": false,
      "stateMutability": "view",
      "type": "function"
    }
  ],
  "bytecode": "0x608060405234801561001057600080fd5b5060405160208061073a8339810180604052602081101561003057600080fd5b8101908080519060200190929190505050806000806101000a81548173ffffffffffffffffffffffffffffffffffffffff021916908373ffffffffffffffffffffffffffffffffffffffff16021790555033600160006101000a81548173ffffffffffffffffffffffffffffffffffffffff021916908373ffffffffffffffffffffffffffffffffffffffff16021790555050610668806100d26000396000f3fe608060405260043610610062576000357c0100000000000000000000000000000000000000000000000000000000900463ffffffff1680630c4f65bd1461006757806310fe9ae8146100be57806326a4e8d214610115578063b16bcebe14610166575b600080fd5b34801561007357600080fd5b5061007c610353565b604051808273ffffffffffffffffffffffffffffffffffffffff1673ffffffffffffffffffffffffffffffffffffffff16815260200191505060405180910390f35b3480156100ca57600080fd5b506100d361037d565b604051808273ffffffffffffffffffffffffffffffffffffffff1673ffffffffffffffffffffffffffffffffffffffff16815260200191505060405180910390f35b34801561012157600080fd5b506101646004803603602081101561013857600080fd5b81019080803573ffffffffffffffffffffffffffffffffffffffff1690602001909291905050506103a6565b005b34801561017257600080fd5b506103516004803603606081101561018957600080fd5b81019080803590602001906401000000008111156101a657600080fd5b8201836020820111156101b857600080fd5b803590602001918460208302840111640100000000831117156101da57600080fd5b919080806020026020016040519081016040528093929190818152602001838360200280828437600081840152601f19601f8201169050808301925050505050505091929192908035906020019064010000000081111561023a57600080fd5b82018360208201111561024c57600080fd5b8035906020019184602083028401116401000000008311171561026e57600080fd5b919080806020026020016040519081016040528093929190818152602001838360200280828437600081840152601f19601f820116905080830192505050505050509192919290803590602001906401000000008111156102ce57600080fd5b8201836020820111156102e057600080fd5b8035906020019184602083028401116401000000008311171561030257600080fd5b919080806020026020016040519081016040528093929190818152602001838360200280828437600081840152601f19601f820116905080830192505050505050509192919290505050610481565b005b6000600160009054906101000a900473ffffffffffffffffffffffffffffffffffffffff16905090565b60008060009054906101000a900473ffffffffffffffffffffffffffffffffffffffff16905090565b600160009054906101000a900473ffffffffffffffffffffffffffffffffffffffff1673ffffffffffffffffffffffffffffffffffffffff163373ffffffffffffffffffffffffffffffffffffffff1614151561040257600080fd5b600073ffffffffffffffffffffffffffffffffffffffff168173ffffffffffffffffffffffffffffffffffffffff161415151561043e57600080fd5b806000806101000a81548173ffffffffffffffffffffffffffffffffffffffff021916908373ffffffffffffffffffffffffffffffffffffffff16021790555050565b8151835114151561049157600080fd5b805182511415156104a157600080fd5b60008090505b8251811015610636576000809054906101000a900473ffffffffffffffffffffffffffffffffffffffff1673ffffffffffffffffffffffffffffffffffffffff1663fecd7fe785838151811015156104fb57fe5b90602001906020020151858481518110151561051357fe5b90602001906020020151858581518110151561052b57fe5b906020019060200201516040518463ffffffff167c0100000000000000000000000000000000000000000000000000000000028152600401808473ffffffffffffffffffffffffffffffffffffffff1673ffffffffffffffffffffffffffffffffffffffff1681526020018373ffffffffffffffffffffffffffffffffffffffff1673ffffffffffffffffffffffffffffffffffffffff1681526020018281526020019350505050602060405180830381600087803b1580156105ed57600080fd5b505af1158015610601573d6000803e3d6000fd5b505050506040513d602081101561061757600080fd5b81019080805190602001909291905050505080806001019150506104a7565b5050505056fea165627a7a72305820fc6cca7afee06115c294e50e0e5b1ef17a08beb28d3d12999aeebdd4bebe2a4f0029",
  "source": "pragma solidity ^0.5.0;\n\ncontract SimpleERC20Token {\n    mapping (address => uint256) public balanceOf;\n\n    string public name = \"Simple ERC20 Token\";\n    string public symbol = \"SET\";\n    uint8 public decimals = 18;\n\n    uint256 public totalSupply = 1000000 * (uint256(10) ** decimals);\n    mapping(address => mapping(address => uint256)) public allowance;\n\n    event Transfer(address indexed from, address indexed to, uint256 value);\n    event Approval(address indexed owner, address indexed spender, uint256 value);\n\n    constructor() public {\n        // Initially assign all tokens to the contract's creator.\n        balanceOf[msg.sender] = totalSupply;\n        emit Transfer(address(0), msg.sender, totalSupply);\n    }\n\n    function transfer(address to, uint256 value) public returns (bool success) {\n        require(balanceOf[msg.sender] >= value);\n    \n        balanceOf[msg.sender] -= value;           // deduct from sender's balance\n        balanceOf[to] += value;                  // add to recipient's balance\n    \n        emit Transfer(msg.sender, to, value);\n        return true;\n    }\n    \n    function approve(address spender, uint256 value) public returns (bool success) {\n        allowance[msg.sender][spender] = value;\n        emit Approval(msg.sender, spender, value);\n        return true;\n    }\n    \n    function transferFrom(address from, address to, uint256 value)\n    public\n    returns (bool success)\n    {\n        require(value <= balanceOf[from]);\n        require(value <= allowance[from][msg.sender]);\n    \n        balanceOf[from] -= value;\n        balanceOf[to] += value;\n        allowance[from][msg.sender] -= value;\n        emit Transfer(from, to, value);\n        return true;\n    }\n    \n    function transferFromUsingContract(address from, address to, uint256 value) \n    public\n    returns (bool success) {\n        require(value <= balanceOf[from]);\n\n        balanceOf[from] -= value;\n        balanceOf[to] += value;\n        emit Transfer(from, to, value);\n        return true;\n    }\n\n}\n\ncontract ChainPayContract {\n    \n    SimpleERC20Token token;\n    address owner;\n    \n    modifier onlyOwner {\n        require(msg.sender == owner);\n        _;\n    }\n    constructor(SimpleERC20Token _token) public {\n        token = _token;\n        owner = msg.sender;\n    }\n    \n    function sendTransactions(address[] memory senders, address[] memory recipients, uint256[] memory amounts) public {\n        require(senders.length == recipients.length);\n        require(recipients.length == amounts.length);\n\n        for(uint256 i = 0; i < recipients.length; i++) {\n            token.transferFromUsingContract(senders[i], recipients[i], amounts[i]);\n        }\n    }\n    \n    function setTokenAddress(SimpleERC20Token token_) public onlyOwner {\n        require(address(token_) != address(0));\n        token = token_;\n    }\n    \n    function getTokenAddress() public view returns(SimpleERC20Token) {\n        return token;\n    }\n    \n    function getOwnerAddress() public view returns(address) {\n        return owner;\n    }\n\n}\n",
  "sourcePath": "/home/ubuntu/chainpay/contracts/Chainpay.sol",
  "compiler": {
    "name": "solc",
    "version": "0.5.0+commit.1d4f565a.Emscripten.clang"
  },
  "schemaVersion": "3.0.1",
  "updatedAt": "2019-02-04T15:18:31.163Z",
  "devdoc": {
    "methods": {}
  },
  "userdoc": {
    "methods": {}
  }
}